:20006600AE82AF837591028E848F85E55D14F58D75910022AF82759100538F8FE55D5407A5
:20008600C454F0FEAD8F4DF58FEF24F050030200E8EF240A83F582EF241483F583E473C5B2
:2000A600C5C5C5C5C5C5C5C5D6D6D6D6D6D6D60000000000000000000000000000000053E5
:2000C600E2F1E55E540725E0FFAEE24EF5E280127591025386F1E55E540725E0FFAE864E68
:2000E600F58675910022759100A2AF9200C2AF75C7AA75C755439F01A20092AF75AF047523
:20010600A60D75A700759100A2AF9200C2AF75C7AA75C75543A401A20092AFE5AE540FFF79
:2001260075A60C75A700759100A2AF9200C2AF75C7AA75C75543A401A20092AFAEAEE4C4D6
:2001460054F0CEC4CE6ECE54F0CE6EFD7C00EF2EF582EC3DF5838C91A2AF9200C2AF75C7DE
:0C016600AA75C755539FFEA20092AF225D
:20017200AC82AD83AEF0FF759100759100538EF77591005389F0438901755D40755E427553
:200192005F0F7560008C828D838EF0EF120B87850A5D850B5E755F00756000120BECAC8221
:2001B200AD83AEF0FF755D0CE4F55EF55FF5608C828D838EF0EF120B87AC82AD83AEF0FF78
:2001D2008C0374FFC39BFB74FFC39C74FF9DFDE49EE49F8D07AD08AE09ED4E60178B8A8F78
:2001F2008C438810308DFD5388DF5388EF1DBDFF011E80E5758A00758C0022AC82AD83AEBD
:20021200F0FF759100759100538EEF75910053890F438910755D40755E42755F0F75600055
:200232008C828D838EF0EF120B87850E5D850F5E755F00756000120BECAC82AD83AEF0FFEE
:20025200755D0CE4F55EF55FF5608C828D838EF0EF120B87AC82AD83AEF0FF8C0374FFC3DF
:200272009BFB74FFC39C74FF9DFDE49EE49F8D07AD0CAE0DED4E60178B8B8F8D43884030CB
:200292008FFD53887F5388BF1DBDFF011E80E522AC82AD83AEF0FF7591007401B5100614F8
:2002B200B51102804C7404B51006E4B5110280467410B51006E4B5110280437420B51006C6
:2002D200E4B5110280407440B51006E4B51102803D7480B51006E4B51102803AE4B51006E4
:2002F20004B511028038E4B510427402B5113D803553C98F803653C98F43C910802E53C95D
:200312008F43C920802653C98F43C930801E53C98F43C940801653C98F43C950800E53C9A7
:200332008F43C960800653C98F43C97053C8FE75910043C98075910043C904755D40755E5D
:2003520042755F0F7560008C828D838EF0EF120B8785145D85155E85165F851760120BEC75
:2003720085105D85115E755F00756000120B87AC82AD83AEF0FF8C03C3E49BFBE4C39CE44A
:200392009DFD74019EE49F8D07AD12AE13ED4E60178BCC8FCD43C80430CFFD53C87F53C8E2
:2003B200FB1DBDFF011E80E522AC82AD83AEF0FF7591007401B5180280317402B5180280F6
:2003D2002F7404B5180280307408B5180280317410B5180280327420B5180280337440B565
:2003F200180280347480B5183D803553C4F8803653C4F843C401802E53C4F843C402802622
:2004120053C4F843C403801E53C4F843C404801653C4F843C405800E53C4F843C406800618
:2004320053C4F843C407755D40755E42755F0F7560008C828D838EF0EF120B87851B5D85FD
:200452001C5E851D5F851E60120BEC85185D755E00755F00756000120B87AC82AD83AEF0ED
:20047200FF8C03C3E49BFBE4C39CFCE49DFD74019EE49F8D07AD19AE1AED4E603275910057
:2004920053C4EF8BC58FC675910043C408AAC47C004302EFBAEF05BC000280F17591005336
:1004B200C4EF75910053C4F71DBDFF011E80CA220F
:2004C200AF82759100BF0602800ABF0702800ABF080F800A75A638800875A630800375A61C
:2004E20030759100A2AF9200C2AF75C7AA75C755439F01A20092AF75A70075AF04759100E9
:20050200A2AF9200C2AF75C7AA75C75543A401A20092AFAEAEE5A604F5A6759100A2AF92D4
:2005220000C2AF75C7AA75C75543A401A20092AFADAE759100A2AF9200C2AF75C7AA75C72F
:2005420055539FFEA20092AFBF082E8E047F00EC2CFCEF33FF8D025302017B00EA2CFCEBD9
:200562003FFFEC24F1FCEF34FFFF8C0374015BFDEFC313CC13CCFF8C0675C7AA75C7558EBB
:200582008475C7AA75C7558D85759100A2AF9200C2AF75C7AA75C755539FFEA20092AF5355
:2005A20087EF22E582FF24FA500302068AEF2F2F9005B6730205C802068A0205F9020608BC
:2005C20002062C02065C75820212068B75820212081775820012068B7582001208177591F3
:2005E20000A2AF9200C2AF75C7AA75C7555397DFA20092AF02068A75820212068B7582025B
:2006020012081702068A75820312068B758203120817759100A2AF9200C2AF75C7AA75C7D1
:20062200555397DFA20092AF805E75820212068B75820212081775820412068B7582041268
:200642000817759100A2AF9200C2AF75C7AA75C7555397DFA20092AF802E75820212068BB2
:2006620075820212081775820512068B758205120817759100A2AF9200C2AF75C7AA75C706
:20068200555397DFA20092AF22E582FF24FA50030207A5EF2F2F90069C730206AE0207A55A
:2006A2000206E002070802072F02076A759100A2AF9200C2AF75C7AA75C75553977FA200B8
:2006C20092AF759100A2AF9200C2AF75C7AA75C755439740A20092AFAE967F0080FA7591C6
:2006E20000A2AF9200C2AF75C7AA75C755439720A20092AFAE967F004306DFBEDF05BF0004
:200702000280F10207A5759100A2AF9200C2AF75C7AA75C755439710A20092AFAE967F0055
:200722004306EFBEEF05BF000280F18076759100A2AF9200C2AF75C7AA75C755439780A2D8
:200742000092AF759100A2AF9200C2AF75C7AA75C755439740A20092AFAE967F004306F785
:20076200BEF740BF003D80F1759100A2AF9200C2AF75C7AA75C755439780A20092AF759101
:2007820000A2AF9200C2AF75C7AA75C7555397BFA20092AFAE967F004306BFBEBF05BF00F4
:2007A2000280F122AF827E008E91EF24FA404CEF2F9007B773800A8042800A8020803680B0
:2007C200387E018036759100A2AF9200C2AF75C7AA75C7555397DFA20092AF801E75910089
:2007E200A2AF9200C2AF75C7AA75C7555397EFA20092AF80067E0180027E01EE6016759100
:2008020000A2AF9200C2AF75C7AA75C75553973FA20092AF22AF827E008E91A2AF9200C26A
:20082200AFEF24FA50030208A3EF2F90083173800A806E800A8036806280647E018062754C
:200842009100A2AF9200C2AF75C7AA75C7555396FBA20092AF759100A2AF9200C2AF75C7DD
:20086200AA75C7555396FDA20092AF8034759100A2AF9200C2AF75C7AA75C755439604A26E
:200882000092AF759100A2AF9200C2AF75C7AA75C7555396FDA20092AF80067E0180027E76
:2008A20001EE602C759100A2AF9200C2AF75C7AA75C7555396FBA20092AF759100A2AF923A
:1508C20000C2AF75C7AA75C755439602A20092AFA20092AF2276
:04005F00C201C20216
:2008D700C0D0C091309808D2028599245398FEA299D091D0D032C09130F80853F8FE859AFA
:2008F70025D20330F90620010353F8FDD09132AC82AD83AEF0FFE4F591B526028012740170
:20091700B5260280717402B52603020A09020A70759850438920438780759100438E10751E
:20093700910053C4DF8C00EDC4C8C4540F68C8540FC868C8F9EEC454F049F98E02EFC4CA24
:20095700C4540F6ACA540FCA6ACAFB85275D85285E85295F852A60888289838AF0EB120B01
:2009770087A882A983AAF0FBC3E498F58D43884043A810020A7075985043878053C4F87580
:20099700910043C4208C00EDC4C8C4540F68C8540FC868C8F9EEC454F049F98E02EFC4CA93
:2009B700C4540F6ACA540FCA6ACAFB85275D85285E85295F852A60888289838AF0EB120BA1
:2009D7008785822B85832C85F02DF52EE4C3952BE4952CF97401952DFAE4952EFB89C6A87F
:2009F7002BC3E498F888C575910043C40843A810806775F85075C480EDC4CCC4540F6CCCE8
:200A1700540FCC6CCCFDEEC454F04DFDEFC4CEC4540F6ECE540FCE6ECEFF85275D85285EB7
:200A370085295F852A608C828D838EF0EF120B87AC82AD83AEF0FFE4C39CF8E49DF974012F
:200A57009EFAE49FFB89C6C3E49CFC8CC575910043C408759100439C0122AF827E008E919F
:200A7700BF00028005BF011280093098FDAE99C298800730F8FDAE9AC2F88E8222AF82C087
:200A970091759100BF00028005BF0114800AC299855D9920990A80FBC2F9855D9A20F9FDA3
:030AB700D09122B9
:03000000020006F5
:0300630002000395
:03000300020ACA24
:200ABA00AE8210990280FB8E997F008E828F83227582061204C275910053B1BF43B2407594
:200ADA009102438902538AFD752601E4F5277528C2752901F52A90360075F06E74011209DF
:200AFA0006439802D201759102438902538AFD75910053E83043E8097591027599004399DF
:200B1A000275910043E10175108075110075122C7513017514E8751503E4F516F517903608
:200B3A000075F06E74011202A253E87F43E84030EFFDAEC3E4C454F0CEC4CE6ECE54F0CE51
:200B5A006EFFACC253040F7D00EC2EFEED3FFFC006C0077485C0E07415C0E07480C0E01285
:0D0B7A000C82E58124FBF581B2B5809B2241
:151585000A204144432056616C7565203D20307825303258003E
:200B8700FB7A20E4FCFDFEFFE5822582F582E58333F583E5F033F5F0EB33FB4017DAE980A7
:200BA70042E5822582F582E58333F583E5F033F5F0EB33FBEC33FCED33FDEE33FEEF33FFD6
:200BC700EC955DED955EEE955FEF95604013EC955DFCED955EFDEE955FFEEF9560FF4382F8
:050BE70001DABEEB2263
:06003500E478FFF6D8FD9F
:200013007900E94400601B7A009015A5780175A000E493F2A308B8000205A0D9F4DAF275D9
:02003300A0FF2C
:200BEC00AAF0FBE582855DF0A4FCADF0E583855DF0A42DFDE435F0FEE582855EF0A42DFDC7
:200C0C00E5F03EFEE433FFEA855DF0A42EFEE5F03FFFE583855EF0A42EFEE5F03FFFE5827D
:200C2C00855FF0A42EFEE5F03FFFEB855DF0A42FFFEA855EF0A42FFFE583855FF0A42FFFC5
:0E0C4C00E5828560F0A42F8EF08D838C8222CD
:20003B007800E84400600A790175A000E4F309D8FC7800E84400600C7900900001E4F0A3C3
:04005B00D8FCD9FAFA
:200C5A00C05C85815C7E008E83120ABAD05C2285823F85834085F041E4F53CF53DF53E8506
:200C7A001F42900C5A020D48C05CE581F55C24FBFF8F42E4F53CF53DF53EE55C24FBF88692
:100C9A003F088640088641900C5A120D48D05C22C3
:200CAA00AF82C032C033C034120CB78007C030C0318F8222158115811581053AE4B53A02DA
:200CCA00053B22AF8274302FFF24C6500B74072FFFE52F60034307208F82020CAAE582FFA7
:200CEA00C4540FF582C007120CCDD007740F5FF582020CCD85825DAB35AC36AD37AE38AAF5
:200D0A0039755F208A07EF2FF55EEE235401455EFAEB2BFBEC33FCED33FDEE33FEC3EA95ED
:200D2A005D4008EAC3955DFA430301E55F14FF8F5F70D18B358C368D378E388A39228582A6
:200D4A0030858331853C32853D33853E34E4F53AF53BAD3FAE40AF418D828E838FF012156E
:200D6A0065FC74012DF53FE43EF5408F41ECFF7003021529BF250280030215217E007D00D1
:200D8A008E438E447A007B008E457C008E46E4F54EF54F7547FF7548FF853F5085405185FD
:200DAA0041528550828551838552F0121565F553A385825085835185503F855140855241B6
:200DCA007425B55308855382120CAA808574D025534003020E8AE55324C65003020E8A741D
:200DEA00FFB54755B54852854E5D854F5E90000AC006C005C004C003C002121548858254B0
:200E0A00858355D002D003D004D005D006855356755700E5562554F556E5573555F557E557
:200E2A005624D0F54EE55734FFF54FE54E454F6003020DAC7D01020DAC85475D85485E9066
:200E4A00000AC006C005C004C003C002121548858256858357D002D003D004D005D00685D6
:200E6A005354755500E5542556F556E5553557F557E55624D0F547E55734FFF548020DAC14
:200E8A00742EB5531574FFB54705B548028003020DACE4F547F548020DAC749F2553500ED7
:200EAA00E553248540085353DF752F018003752F007420B55303020F56742BB55303020FED
:200ECA0050742DB5530280797442B55303020F5C7443B55303020F677444B553030211B422
:200EEA007446B553030211CA7448B55303020DAC7449B553030211B4744AB55303020DACB1
:200F0A00744CB553028050744FB553030211BB7450B553030210FF7453B553028076745422
:200F2A00B55303020DAC7455B553030211C07458B553030211C5745AB55303020DAC0211E4
:200F4A00CE7E01020DAC754301020DAC754401020DAC7B01020DAC754501020DACEB600A94
:200F6A00E54214F989428756800DE54224FEF554855442A9548756855682C006C005C004CB
:200F8A00C003C002120CAAD002D003D004D005D0060211F0E54224FDF556855642A956879D
:200FAA005009875109875219198550358551368552378550828551838552F0C006C005C0FC
:200FCA0004C003C002121530858256858357D002D003D004D005D00674FFB54709B54806CC
:200FEA00855647855748EE704FC3E556954EE557954F5044E54EC39556F554E54F9557F520
:20100A0055855450855551155474FFB554021555E5504551601C758220C006C005C004C05F
:20102A0003C002120CAAD002D003D004D005D00680CF85544E85554F85475485485585355A
:20104A00828536838537F0121565F55085504B604FC3E4955474808555F063F08095F05084
:20106A003F155474FFB554021555854B82C006C005C004C003C002120CAAD002D003D0046F
:20108A00D005D0068535508536518537520550E4B550020551855035855136855237809E9F
:2010AA00EE70030211F0C3E556954EE557954F40030211F0E54EC39556F556E54F9557F53A
:2010CA0057855654855755155674FFB556021557E554455570030211EA758220C006C00513
:2010EA00C004C003C002120CAAD002D003D004D005D00680CCE54224FDF554855442A954BC
:20110A008750098751098752191985503585513685523785374C7480254C50057554438087
:20112A001974A0254C5005755450800E74C0254C50057554498003755458855482C006C07A
:20114A0005C004C003C002120CAA75823A120CAA758230120CAA758278120CAAD002D003AB
:20116A00D004D005D0067449B5540280217450B55402801A853682C006C005C004C003C005
:20118A0002120CE7D002D003D004D005D006853582C006C005C004C003C002120CE7D00233
:2011AA00D003D004D005D006803C7A0175460A8035754608803075460A802B7546108026CE
:2011CA007C018022855382C006C005C004C003C002120CAAD002D003D004D005D006800646
:2011EA0085564E85574FEC6068E54224FCFC8C428C01875809875909875A09875B19191957
:20120A00855835855936855A37855B3875359A75361575378085355885365985375A74018F
:20122A002558F550E43559F551855A52855035855136855237855882855983855AF012151F
:20124A0065FC8C587003020D5C855882120CAA80C4E5467003020D5CEB603FE54214F989A6
:20126A004287048C58755900755A00755B00855835855936855A37855B38EA600302130D83
:20128A00853558755900755A00755B00855835855936855A37855B388069E5456025E542B2
:2012AA0024FCFC8C428C01875809875909875A09875B191919855835855936855A37855BA9
:2012CA00388040E54224FEFC8C428C018703098704198B58ECF5593395E0F55AF55B8558F4
:2012EA0035855936855A37855B38EA7016853558853659F55AF55B855835855936855A37FC
:20130A00855B38EA602AE53830E723C3E49535F558E49536F559E49537F55AE49538F55B25
:20132A00855835855936855A37855B3880027A007C017966E4F558F559753900854682C0BD
:20134A0006C005C004C002C001120CFED001D002D004D005D006EC700DE539C4F556E7FBBB
:20136A004556F7198002A7390558E4B558020559ECB40100E433FCE53545364537453870F6
:20138A00B8894D85584985594AE54E454F7005754E01F54FED7043EE7040854E58854F598D
:2013AA00AB490B8B56755700C3E5569558E55795595021758220C006C005C004C002120CAB
:2013CA00AAD002D004D005D006155874FFB55802155980CC85584E85594FEA601D75822D7C
:2013EA00C006C005C004120CAAD004D005D006154E74FFB54E02154F8046E549454A6040EB
:20140A00E543601D75822BC006C005C004120CAAD004D005D006154E74FFB54E02154F80A6
:20142A001FE544601B758220C006C005C004120CAAD004D005D006154E74FFB54E02154FF3
:20144A00EE703C854E58854F59AA58AB59155874FFB558021559C3E5499AE54A9B5041ED5A
:20146A0060067A307B0080047A207B008A82C006C005C004120CAAD004D005D00680CAC38F
:20148A00E549954EE54A954F500FE54EC39549F556E54F954AF557800DE4F556F5578006B3
:2014AA00855856855957A94D854958854A59AA58AD59155874FFB558021559EA4D602EEC60
:2014CA00B40100E433FC700A09E7C4540FFD8D3980078705740F5DF539853982C006C004FB
:2014EA00C001120CCDD001D004D00680C1EE7003020D5CAD56AE578D038E041DBDFF011E8C
:20150A00EB4C7003020D5C758220C006C005120CAAD005D00680E08F82120CAA020D5C856E
:06152A003A82853B83229A
:0B159A003C4E4F20464C4F41543E0099
:18153000AA82AB831215656003A380F8C3E5829AF582E5839BF5832267
:1D154800E582855DF0A4C582C0F0855EF0A4D0F025F0C583855DF0A42583F5832266
:0D000600758166121581E58260030200031A
:1C15650020F71430F6148883A88220F507E6A88375830022E280F7E49322E02295
:04158100758200224D
:00000001FF
