:03000000020006F5
:03005F0002000399
:0300030002006296
:2000620075910075B10075B20075B30075B400759102758900758A0075910075AC0075AD8C
:20008200007590FF75A0FF75B0FF7580FF7500647501007500E875010390240075F0F4E418
:2000A20012000075900075A00075B0007580007500647501007500E875010390240075F0BA
:0700C200F4E412000080BA13
:06003500E478FFF6D8FD9F
:200013007900E94400601B7A009000CD780175A000E493F2A308B8000205A0D9F4DAF275C6
:02003300A0FF2C
:20003B007800E84400600A790175A000E4F309D8FC7800E84400600C7900900001E4F0A3C3
:04005B00D8FCD9FAFA
:0D0006007581071200C9E582600302000346
:0400C900758200221A
:00000001FF
