:20006200AC82AD83AEF0FF759100759100538EF77591005389F043890175244075254275D6
:20008200260F7527008C828D838EF0EF12082F850A24850B25752600752700120894AC823E
:2000A200AD83AEF0FF75240CE4F525F526F5278C828D838EF0EF12082FAC82AD83AEF0FFC8
:2000C2008C0374FFC39BFB74FFC39C74FF9DFDE49EE49F8D07AD08AE09ED4E60178B8A8F89
:2000E2008C438810308DFD5388DF5388EF1DBDFF011E80E5758A00758C0022AC82AD83AECE
:20010200F0FF759100759100538EEF75910053890F43891075244075254275260F7527004A
:200122008C828D838EF0EF12082F850E24850F25752600752700120894AC82AD83AEF0FF99
:2001420075240CE4F525F526F5278C828D838EF0EF12082FAC82AD83AEF0FF8C0374FFC32F
:200162009BFB74FFC39C74FF9DFDE49EE49F8D07AD0CAE0DED4E60178B8B8F8D43884030DC
:200182008FFD53887F5388BF1DBDFF011E80E522AC82AD83AEF0FF7591007401B510061409
:2001A200B51102804C7404B51006E4B5110280467410B51006E4B5110280437420B51006D7
:2001C200E4B5110280407440B51006E4B51102803D7480B51006E4B51102803AE4B51006F5
:2001E20004B511028038E4B510427402B5113D803553C98F803653C98F43C910802E53C96E
:200202008F43C920802653C98F43C930801E53C98F43C940801653C98F43C950800E53C9B8
:200222008F43C960800653C98F43C97053C8FE75910043C98075910043C9047524407525E0
:200242004275260F7527008C828D838EF0EF12082F85142485152585162685172712089492
:2002620085102485112575260075270012082FAC82AD83AEF0FF8C03C3E49BFBE4C39CE49A
:200282009DFD74019EE49F8D07AD12AE13ED4E60178BCC8FCD43C80430CFFD53C87F53C8F3
:2002A200FB1DBDFF011E80E522AC82AD83AEF0FF7591007401B5180280317402B518028007
:2002C2002F7404B5180280307408B5180280317410B5180280327420B5180280337440B576
:2002E200180280347480B5183D803553C4F8803653C4F843C401802E53C4F843C402802633
:2003020053C4F843C403801E53C4F843C404801653C4F843C405800E53C4F843C406800629
:2003220053C4F843C40775244075254275260F7527008C828D838EF0EF12082F851B248586
:200342001C25851D26851E2712089485182475250075260075270012082FAC82AD83AEF043
:20036200FF8C03C3E49BFBE4C39CFCE49DFD74019EE49F8D07AD19AE1AED4E603275910068
:2003820053C4EF8BC58FC675910043C408AAC47C004302EFBAEF05BC000280F17591005347
:1003A200C4EF75910053C4F71DBDFF011E80CA2220
:2003B200AF82759100BF0602800ABF0702800ABF080F800A75A638800875A630800375A62D
:2003D20030759100A2AF9200C2AF75C7AA75C755439F01A20092AF75A70075AF04759100FA
:2003F200A2AF9200C2AF75C7AA75C75543A401A20092AFAEAEE5A604F5A6759100A2AF92E6
:2004120000C2AF75C7AA75C75543A401A20092AFADAE759100A2AF9200C2AF75C7AA75C740
:2004320055539FFEA20092AFBF082E8E047F00EC2CFCEF33FF8D025302017B00EA2CFCEBEA
:200452003FFFEC24F1FCEF34FFFF8C0374015BFDEFC313CC13CCFF8C0675C7AA75C7558ECC
:200472008475C7AA75C7558D85759100A2AF9200C2AF75C7AA75C755539FFEA20092AF5366
:2004920087EF22E582FF24FA500302057AEF2F2F9004A6730204B802057A0204E90204F834
:2004B20002051C02054C75820212057B75820212070775820012057B75820012070775916A
:2004D20000A2AF9200C2AF75C7AA75C7555397DFA20092AF02057A75820212057B7582028E
:2004F20012070702057A75820312057B758203120707759100A2AF9200C2AF75C7AA75C727
:20051200555397DFA20092AF805E75820212057B75820212070775820412057B75820412AC
:200532000707759100A2AF9200C2AF75C7AA75C7555397DFA20092AF802E75820212057BE5
:2005520075820212070775820512057B758205120707759100A2AF9200C2AF75C7AA75C74A
:20057200555397DFA20092AF22E582FF24FA5003020695EF2F2F90058C7302059E020695AF
:200592000205D00205F802061F02065A759100A2AF9200C2AF75C7AA75C75553977FA2000E
:2005B20092AF759100A2AF9200C2AF75C7AA75C755439740A20092AFAE967F0080FA7591D7
:2005D20000A2AF9200C2AF75C7AA75C755439720A20092AFAE967F004306DFBEDF05BF0015
:2005F2000280F1020695759100A2AF9200C2AF75C7AA75C755439710A20092AFAE967F0078
:200612004306EFBEEF05BF000280F18076759100A2AF9200C2AF75C7AA75C755439780A2E9
:200632000092AF759100A2AF9200C2AF75C7AA75C755439740A20092AFAE967F004306F796
:20065200BEF740BF003D80F1759100A2AF9200C2AF75C7AA75C755439780A20092AF759112
:2006720000A2AF9200C2AF75C7AA75C7555397BFA20092AFAE967F004306BFBEBF05BF0005
:200692000280F122AF827E008E91EF24FA404CEF2F9006A773800A8042800A8020803680D2
:2006B200387E018036759100A2AF9200C2AF75C7AA75C7555397DFA20092AF801E7591009A
:2006D200A2AF9200C2AF75C7AA75C7555397EFA20092AF80067E0180027E01EE6016759111
:2006F20000A2AF9200C2AF75C7AA75C75553973FA20092AF22AF827E008E91A2AF9200C27C
:20071200AFEF24FA5003020793EF2F90072173800A806E800A8036806280647E018062757F
:200732009100A2AF9200C2AF75C7AA75C7555396FBA20092AF759100A2AF9200C2AF75C7EE
:20075200AA75C7555396FDA20092AF8034759100A2AF9200C2AF75C7AA75C755439604A27F
:200772000092AF759100A2AF9200C2AF75C7AA75C7555396FDA20092AF80067E0180027E87
:2007920001EE602C759100A2AF9200C2AF75C7AA75C7555396FBA20092AF759100A2AF924B
:1507B20000C2AF75C7AA75C755439602A20092AFA20092AF2287
:03000000020006F5
:03005F0002000399
:030003000207C72A
:2007C70075910075B10075B20075B30075B400759102758900758A0075910075AC0075AD20
:2007E700007590FF75A0FF75B0FF7580FF750864750900750AE8750B0390240075F0F4E488
:2008070012006275900075A00075B000758000750864750900750AE8750B0390240075F0C7
:08082700F4E412006280BA2221
:20082F00FB7A20E4FCFDFEFFE5822582F582E58333F583E5F033F5F0EB33FB4017DAE98002
:20084F0042E5822582F582E58333F583E5F033F5F0EB33FBEC33FCED33FDEE33FEEF33FF31
:20086F00EC9524ED9525EE9526EF95274013EC9524FCED9525FDEE9526FEEF9527FF43821B
:05088F0001DABEEB22BE
:06003500E478FFF6D8FD9F
:200013007900E94400601B7A00900906780175A000E493F2A308B8000205A0D9F4DAF27584
:02003300A0FF2C
:20089400AAF0FBE5828524F0A4FCADF0E5838524F0A42DFDE435F0FEE5828525F0A42DFDCD
:2008B400E5F03EFEE433FFEA8524F0A42EFEE5F03FFFE5838525F0A42EFEE5F03FFFE5824B
:2008D4008526F0A42EFEE5F03FFFEB8524F0A42FFFEA8525F0A42FFFE5838526F0A42FFF05
:0E08F400E5828527F0A42F8EF08D838C822262
:20003B007800E84400600A790175A000E4F309D8FC7800E84400600C7900900001E4F0A3C3
:04005B00D8FCD9FAFA
:0D000600758127120902E5826003020003E4
:0409020075820022D8
:00000001FF
