:20008C0075910043B30843B40875910043B31043B41075BE0D43C040222243C02053C0F74A
:2000AC0030C3FD7408B5BD01220200A543C01053C0F720C4FD22AF8253C0DF8FBC53C0F7F4
:0C00CC0030C3FD7418B5BD01220200A570
:03000000020006F5
:20005F0075083F750906750A5B750B4F750C66750D6D750E7D750F0775107F75116F7512B7
:0D007F000075134075147C751550020003C8
:030003000200D820
:2000D8007582011202D57516FF7517FF7518FF90001675F0401202FD7E887F137C327D0067
:2000F8001CBCFF011DEC4D70F71EBEFF011FEE4F70EA7E887F137C327D001CBCFF011DEC1D
:200118004D70F71EBEFF011FEE4F70EA7E887F137C327D001CBCFF011DEC4D70F71EBEFF4E
:20013800011FEE4F70EA7E887F137C327D001CBCFF011DEC4D70F71EBEFF011FEE4F70EA06
:20015800F516751701F51890001675F0401202FD7E887F137C327D001CBCFF011DEC4D7025
:20017800F71EBEFF011FEE4F70EAF516F51775180190001675F0401202FD7E887F137C3297
:200198007D001CBCFF011DEC4D70F71EBEFF011FEE4F70EAF516F51775180290001675F0F2
:2001B800401202FD7E887F137C327D001CBCFF011DEC4D70F71EBEFF011FEE4F70EAF516E1
:2001D800F51775180490001675F0401202FD7E887F137C327D001CBCFF011DEC4D70F71E98
:2001F800BEFF011FEE4F70EAF516F51775180890001675F0401202FD7E887F137C327D00A8
:200218001CBCFF011DEC4D70F71EBEFF011FEE4F70EAF516751708F51890001675F0401296
:2002380002FD7E887F137C327D001CBCFF011DEC4D70F71EBEFF011FEE4F70EA751608F535
:2002580017F51890001675F0401202FD7E887F137C327D001CBCFF011DEC4D70F71EBEFFD3
:20027800011FEE4F70EA751610F517F51890001675F0401202FD7E887F137C327D001CBC04
:20029800FF011DEC4D70F71EBEFF011FEE4F70EA751620F517F51890001675F0401202FDD7
:1D02B8007E887F137C327D001CBCFF011DEC4D70F71EBEFF011FEE4F70EA0200DE5F
:2002D500AF82C00712008CD0078F1A7582480202E6AF82C0071200A6D0078F821200C285D9
:2002F5001A821200C20200B885821B85831C85F01D7B007C008B02EA2A2468FAEB251BF8A6
:20031500EC351CF9AF1D888289838FF0120344F51A8A82C004C0031202E6D003D0040BBBCF
:0F03350000010CC3EB9404EC6480948040C72259
:06003500E478FFF6D8FD9F
:200013007900E94400601B7A00900364780175A000E493F2A308B8000205A0D9F4DAF2752C
:02003300A0FF2C
:20003B007800E84400600A790175A000E4F309D8FC7800E84400600C7900900001E4F0A3C3
:04005B00D8FCD9FAFA
:0D00060075811D120360E582600302000396
:1C03440020F71430F6148883A88220F507E6A88375830022E280F7E49322E022C8
:040360007582002280
:00000001FF
