:1000620075A63875A70075AF04759100A2AF92040A
:10007200C2AF75C7AA75C75543A401A20492AFAF18
:10008200AE75A639759100A2AF9204C2AF75C7AA28
:1000920075C75543A401A20492AFAEAE75C7AA7547
:1000A200C7558F8475C7AA75C7558E852275A63028
:1000B20075A70075AF04759100A2AF9204C2AF7527
:1000C200C7AA75C75543A401A20492AFAFAE75A6E5
:1000D20031759100A2AF9204C2AF75C7AA75C75518
:1000E20043A401A20492AFAEAE75C7AA75C7558FDD
:1000F2008475C7AA75C7558E852275AF0C75A70082
:1001020075A600759100A2AF9204C2AF75C7AA7519
:10011200C75543A401A20492AF85AE3575A60175F9
:100122009100A2AF9204C2AF75C7AA75C75543A486
:1001320001A20492AF85AE3475A602759100A2AFFA
:100142009204C2AF75C7AA75C75543A401A204920F
:10015200AF85AE3375A603759100A2AF9204C2AF0C
:1001620075C7AA75C75543A401A20492AF85AE32E2
:100172002275AFC075A60075A700759100A2AF9257
:1001820004C2AF75C7AA75C75543A401A20492AFB2
:1001920085AE3675A601759100A2AF9204C2AF7505
:1001A200C7AA75C75543A401A20492AF85AE37759D
:1001B200A602759100A2AF9204C2AF75C7AA75C715
:1001C2005543A401A20492AF85AE3875A604759179
:1001D20000A2AF9204C2AF75C7AA75C75543A40166
:1001E200A20492AF85AE3922758A00758C004388CD
:1001F2001075910043B71043A8022275910053B1C4
:10020200BF53B2BF75910043B18053B27F7598500E
:1002120043878053C4F875910043C42075C6FF75A7
:10022200C5F375910043C408D2ACD2AF22E4F52ADB
:10023200F52BF52CF52DF52774C02527402CE52745
:100242002401F582E43400F583E0FFE4FEFDFCEFD7
:10025200252AF52AEE352BF52BED352CF52CEC3530
:100262002DF52DE52704F52780CEAF2A900041EF2A
:10027200F0AF2B900042EFF0900005E0FF0F9000EE
:1002820045EFF0900006E0900046F0900045E070E7
:100292000B900046E0FF0F900046EFF022759100B0
:1002A20075270074C02527401AC299E5272441F515
:1002B20082E43400F583E0F5993099FDE52704F5F1
:1002C2002780E022C0E0C082C083C007C0D075D0C2
:1002D20000C091309816E521FF04F521EF2401F5C5
:1002E20082E43400F583E599F05398FE3099035384
:1002F20098FD7401B52105C20275265A7440B521D4
:100302000AD200752600C202752100D091D0D0D049
:1003120007D083D082D0E032C0E0C007C006C0D090
:1003220075D000C091E52845296016AE28AF29EEA8
:1003320024FFF528EF34FFF529E52845297002D27C
:1003420001E526600BE52614F526E5267002D202A9
:0B035200D091D0D0D006D007D0E03210
:03000000020006F5
:03005F0002000399
:0300030002035D98
:10035D00759100A2AF9204C2AF75C7AA75C7554378
:10036D009F01A20492AF1200621201FD1201EAC2B6
:10037D0001752888752913C2032000030207EFC2F7
:10038D00AF20030302045D75270874C025275003B1
:10039D0002044975AF218522A68523A7E5272401EF
:1003AD00F582E43400F583E0F5AE759100A2AF92CD
:1003BD0004C2AF75C7AA75C75543A401A20492AF75
:1003CD0075AF00759100A2AF9204C2AF75C7AA7543
:1003DD00C75543A401A20492AFE5272401F582E499
:1003ED003400F583E0FFB5AE02800280FE7443B5A4
:1003FD009F0280FEE5272401F582E43400F583E0B9
:10040D00FFE4FEFDFCEF252EF52EEE352FF52FED3D
:10041D003530F530EC3531F531AE22AF2374012E88
:10042D00F522E43FF523E524B52209E525B523049E
:10043D00C2038008E52704F52702039712022FAFA8
:10044D002E900049EFF0AF2F90004AEFF012029F6F
:10045D00900001E0FFBFA00302068FBFA1030205BC
:10046D0081BFA203020549BFA3028060BFA4028021
:10047D0018BFA6028023BFAB03020811BFAE0280D6
:10048D0008BFB10280220207E812022F12029FE478
:10049D00F528F529C2010207E812022F90004974D0
:1004AD0028F012029F0207E81200FC12022F9000A2
:1004BD0049E535F090004AE534F090004BE533F016
:1004CD0090004CE532F012029F0207E8A2AF9204B1
:1004DD00C2AF75C7AA75C75543A501A20492AF75E2
:1004ED00AEFF75AF22E4F522F523C3E52294E0E5D6
:1004FD00239400503EE52275F080A4FF8FA6AE2216
:10050D00E5235401A2E0CE13CE13CEFF8FA7759134
:10051D0000A2AF9204C2AF75C7AA75C75543A40117
:10052D00A20492AFAE22AF2374012EF522E43FF563
:10053D002380B712022F12029F0207E812017312D5
:10054D00022F900049E536F090004AE537F0900013
:10055D004BE538F090004C74FFF090004DE539F00C
:10056D0090004E74FFF090004FF0900050F012028A
:10057D009F0207E8900009E0F53A90000AE0F53B8C
:10058D0090000BE0F53C90000DE0F53DA2AF92041C
:10059D00C2AF75C7AA75C75543A504A20492AF751E
:1005AD00AFE275A60075A70075AEFF759100A2AFFD
:1005BD009204C2AF75C7AA75C75543A401A2049290
:1005CD00AF75AFE175A60075A700853AAE759100C0
:1005DD00A2AF9204C2AF75C7AA75C75543A401A2B5
:1005ED000492AF853BAE75A601759100A2AF920442
:1005FD00C2AF75C7AA75C75543A401A20492AF75C2
:10060D00A602853CAE759100A2AF9204C2AF75C72C
:10061D00AA75C75543A401A20492AF75A604853DE2
:10062D00AE759100A2AF9204C2AF75C7AA75C7553A
:10063D0043A401A20492AFA2AF9204C2AF75C7AAA0
:10064D0075C75553A5FBA20492AF12017312022F69
:10065D00900049E536F090004AE537F090004BE503
:10066D0038F090004C74FFF090004DE539F090009B
:10067D004E74FFF090004FF0900050F012029F0268
:10068D0007E8A2AF9204C2AF75C7AA75C75543A5B7
:10069D0001A20492AF75AEFF75AF22E4F522F523EA
:1006AD00C3E52294E0E5239400503EE52275F080E9
:1006BD00A4FF8FA6AE22E5235401A2E0CE13CE13E4
:1006CD00CEFF8FA7759100A2AF9204C2AF75C7AAD6
:1006DD0075C75543A401A20492AFAE22AF23740196
:1006ED002EF522E43FF52380B7E4F52EF52FF530F6
:1006FD00F531F522F523F524F52590000DE0FF8F5A
:10070D002475250090000EE0FEE4FF4224EE422504
:10071D00D20375271074C0252750030207D475AF77
:10072D00218522A68523A7E5272401F582E434003F
:10073D00F583E0F5AE759100A2AF9204C2AF75C717
:10074D00AA75C75543A401A20492AF75AF00759168
:10075D0000A2AF9204C2AF75C7AA75C75543A401D5
:10076D00A20492AFE5272401F582E43400F583E07D
:10077D00FFB5AE02800280FE7443B59F0280FEE598
:10078D00272401F582E43400F583E0FFE4FEFDFC4F
:10079D00EF252EF52EEE352FF52FED3530F530EC0E
:1007AD003531F531AE22AF2374012EF522E43FF53C
:1007BD0023E524B52209E525B52304C2038008E508
:1007CD002704F52702072212022FAF2E900049EFC2
:1007DD00F0AF2F90004AEFF012029FC2007521007A
:1007ED00D2AF20011F20020302038674C0252140D1
:1007FD0004E5217009E52124BF400302038675211C
:10080D00000203861200AF759100A2AF9204C2AF31
:10081D0075C7AA75C755539FFEA20492AF75C7AA97
:10082D0075C755539FFD75C7AA75C755439F8080E2
:01083D00FEBC
:06003500E478FFF6D8FD9F
:100013007900E94400601B7A00900842788175A05A
:1000230000E493F2A308B8000205A0D9F4DAF2754C
:02003300A0FF2C
:10003B007800E84400600A790175A000E4F309D860
:10004B00FC7880E84400600C7901900001E4F0A397
:04005B00D8FCD9FAFA
:0D00060075813D12083EE582600302000393
:04083E00758200229D
:00000001FF
