:10006600AC82AD83AEF0FF759100759100538EF7AB
:100076007591005389F0438901755D40755E42753F
:100086005F0F7560008C828D838EF0EF120A2385D8
:100096000A5D850B5E755F00756000120A88AC828A
:1000A600AD83AEF0FF755D0CE4F55EF55FF5608C33
:1000B600828D838EF0EF120A23AC82AD83AEF0FF01
:1000C6008C0374FFC39BFB74FFC39C74FF9DFDE40C
:1000D6009EE49F8D07AD08AE09ED4E60178B8A8FA3
:1000E6008C438810308DFD5388DF5388EF1DBDFF8C
:1000F600011E80E5758A00758C0022AC82AD83AE48
:10010600F0FF759100759100538EEF75910053893C
:100116000F438910755D40755E42755F0F7560000F
:100126008C828D838EF0EF120A23850E5D850F5E1D
:10013600755F00756000120A88AC82AD83AEF0FF71
:10014600755D0CE4F55EF55FF5608C828D838EF04F
:10015600EF120A23AC82AD83AEF0FF8C0374FFC3AB
:100166009BFB74FFC39C74FF9DFDE49EE49F8D077B
:10017600AD0CAE0DED4E60178B8B8F8D43884030E6
:100186008FFD53887F5388BF1DBDFF011E80E5226A
:10019600AC82AD83AEF0FF7591007401B510061404
:1001A600B51102804C7404B51006E4B51102804600
:1001B6007410B51006E4B5110280437420B510061C
:1001C600E4B5110280407440B51006E4B511028012
:1001D6003D7480B51006E4B51102803AE4B5100608
:1001E60004B511028038E4B510427402B5113D80A1
:1001F6003553C98F803653C98F43C910802E53C9D2
:100206008F43C920802653C98F43C930801E53C9E6
:100216008F43C940801653C98F43C950800E53C9B6
:100226008F43C960800653C98F43C97053C8FE7592
:10023600910043C98075910043C904755D40755EA0
:1002460042755F0F7560008C828D838EF0EF120A07
:100256002385145D85155E85165F851760120A88ED
:1002660085105D85115E755F00756000120A23AC0E
:1002760082AD83AEF0FF8C03C3E49BFBE4C39CE436
:100286009DFD74019EE49F8D07AD12AE13ED4E6089
:10029600178BCC8FCD43C80430CFFD53C87F53C8CE
:1002A600FB1DBDFF011E80E522AC82AD83AEF0FFD3
:1002B6007591007401B5180280317402B518028078
:1002C6002F7404B5180280307408B5180280317492
:1002D60010B5180280327420B5180280337440B508
:1002E600180280347480B5183D803553C4F88036C2
:1002F60053C4F843C401802E53C4F843C402802675
:1003060053C4F843C403801E53C4F843C404801680
:1003160053C4F843C405800E53C4F843C40680068C
:1003260053C4F843C407755D40755E42755F0F752B
:1003360060008C828D838EF0EF120A23851B5D850B
:100346001C5E851D5F851E60120A8885185D755EB8
:1003560000755F00756000120A23AC82AD83AEF0B3
:10036600FF8C03C3E49BFBE4C39CFCE49DFD74018A
:100376009EE49F8D07AD19AE1AED4E603275910061
:1003860053C4EF8BC58FC675910043C408AAC47CBD
:10039600004302EFBAEF05BC000280F175910053ED
:1003A600C4EF75910053C4F71DBDFF011E80CA221C
:1003B600AF82759100BF0602800ABF0702800ABF9E
:1003C600080F800A75A638800875A630800375A6C2
:1003D60030759100A2AF9200C2AF75C7AA75C75516
:1003E600439F01A20092AF75A70075AF04759100F7
:1003F600A2AF9200C2AF75C7AA75C75543A401A2A2
:100406000092AFAEAEE5A604F5A6759100A2AF9236
:1004160000C2AF75C7AA75C75543A401A20092AF23
:10042600ADAE759100A2AF9200C2AF75C7AA75C7EF
:1004360055539FFEA20092AFBF082E8E047F00EC9C
:100446002CFCEF33FF8D025302017B00EA2CFCEB00
:100456003FFFEC24F1FCEF34FFFF8C0374015BFDDE
:10046600EFC313CC13CCFF8C0675C7AA75C7558E80
:100476008475C7AA75C7558D85759100A2AF920080
:10048600C2AF75C7AA75C755539FFEA20092AF5358
:1004960087EF22E582FF24FA500302057EEF2F2F15
:1004A6009004AA730204BC02057E0204ED0204FC59
:1004B60002052002055075820212057F758202121E
:1004C600070B75820012057F75820012070B759166
:1004D60000A2AF9200C2AF75C7AA75C7555397DF82
:1004E600A20092AF02057E75820212057F75820216
:1004F60012070B02057E75820312057F75820312B1
:10050600070B759100A2AF9200C2AF75C7AA75C757
:10051600555397DFA20092AF805E75820212057F67
:1005260075820212070B75820412057F758204120A
:10053600070B759100A2AF9200C2AF75C7AA75C727
:10054600555397DFA20092AF802E75820212057F67
:1005560075820212070B75820512057F75820512D8
:10056600070B759100A2AF9200C2AF75C7AA75C7F7
:10057600555397DFA20092AF22E582FF24FA50037B
:10058600020699EF2F2F900590730205A202069995
:100596000205D40205FC02062302065E759100A23E
:1005A600AF9200C2AF75C7AA75C75553977FA20011
:1005B60092AF759100A2AF9200C2AF75C7AA75C778
:1005C60055439740A20092AFAE967F0080FA759190
:1005D60000A2AF9200C2AF75C7AA75C75543972050
:1005E600A20092AFAE967F004306DFBEDF05BF00D6
:1005F6000280F1020699759100A2AF9200C2AF7512
:10060600C7AA75C755439710A20092AFAE967F0052
:100616004306EFBEEF05BF000280F18076759100BC
:10062600A2AF9200C2AF75C7AA75C755439780A2FD
:100636000092AF759100A2AF9200C2AF75C7AA75BE
:10064600C755439740A20092AFAE967F004306F788
:10065600BEF740BF003D80F1759100A2AF9200C287
:10066600AF75C7AA75C755439780A20092AF75911B
:1006760000A2AF9200C2AF75C7AA75C7555397BF00
:10068600A20092AFAE967F004306BFBEBF05BF0075
:100696000280F122AF827E008E91EF24FA404CEF69
:1006A6002F9006AB73800A8042800A8020803680B5
:1006B600387E018036759100A2AF9200C2AF75C731
:1006C600AA75C7555397DFA20092AF801E75910099
:1006D600A2AF9200C2AF75C7AA75C7555397EFA2CE
:1006E6000092AF80067E0180027E01EE6016759153
:1006F60000A2AF9200C2AF75C7AA75C75553973F00
:10070600A20092AF22AF827E008E91A2AF9200C26B
:10071600AFEF24FA5003020797EF2F900725738057
:100726000A806E800A8036806280647E01806275EF
:100736009100A2AF9200C2AF75C7AA75C75553966E
:10074600FBA20092AF759100A2AF9200C2AF75C72F
:10075600AA75C7555396FDA20092AF8034759100D5
:10076600A2AF9200C2AF75C7AA75C755439604A239
:100776000092AF759100A2AF9200C2AF75C7AA757D
:10078600C7555396FDA20092AF80067E0180027E79
:1007960001EE602C759100A2AF9200C2AF75C7AA98
:1007A60075C7555396FBA20092AF759100A2AF9202
:1007B60000C2AF75C7AA75C755439602A20092AF8D
:0507C600A20092AF2229
:04005F00C201C20216
:1007CB00C0D0C091309808D2028599245398FEA2CC
:1007DB0099D091D0D032C09130F80853F8FE859A59
:1007EB0025D20330F90620010353F8FDD09132AC2A
:1007FB0082AD83AEF0FFE4F591B526028012740151
:10080B00B5260280717402B526030208FD02096445
:10081B00759850438920438780759100438E1075DE
:10082B00910053C4DF8C00EDC4C8C4540F68C85486
:10083B000FC868C8F9EEC454F049F98E02EFC4CA68
:10084B00C4540F6ACA540FCA6ACAFB85275D852830
:10085B005E85295F852A60888289838AF0EB120A7C
:10086B0023A882A983AAF0FBC3E498F58D438840A3
:10087B0043A81002096475985043878053C4F875D8
:10088B00910043C4208C00EDC4C8C4540F68C854F5
:10089B000FC868C8F9EEC454F049F98E02EFC4CA08
:1008AB00C4540F6ACA540FCA6ACAFB85275D8528D0
:1008BB005E85295F852A60888289838AF0EB120A1C
:1008CB002385822B85832C85F02DF52EE4C3952B68
:1008DB00E4952CF97401952DFAE4952EFB89C6A8A5
:1008EB002BC3E498F888C575910043C40843A8103E
:1008FB00806775F85075C480EDC4CCC4540F6CCCB4
:10090B00540FCC6CCCFDEEC454F04DFDEFC4CEC4F3
:10091B00540F6ECE540FCE6ECEFF85275D85285EAD
:10092B0085295F852A608C828D838EF0EF120A23D6
:10093B00AC82AD83AEF0FFE4C39CF8E49DF9740187
:10094B009EFAE49FFB89C6C3E49CFC8CC5759100A1
:10095B0043C408759100439C0122AF82759100BF7F
:10096B0000028005BF011280093098FDAF99C29833
:10097B00800730F8FDAF9AC2F88F8222AF82C09108
:10098B00759100BF00028005BF0114800AC29985D2
:10099B005D9920990A80FBC2F9855D9A20F9FDD0FB
:0209AB00912297
:03000000020006F5
:0300630002000395
:030003000209AD42
:1009AD0075910053B1BF53B2BF7582061203B67570
:1009BD002601E4F5277528C2752901F52A90360020
:1009CD0075F06E74011207FA439802D20143980232
:1009DD00D2017421C0E07414C0E07480C0E0120B29
:1009ED001E1581158115815398FDC20175082C7551
:1009FD000901750AE8750B0390360075F06E7401E8
:060A0D0012006680C82201
:0F1421000A2048656C6C6F20776F726C64210035
:100A1300AE8210990280FB8E997F008E828F832293
:100A2300FB7A20E4FCFDFEFFE5822582F582E58367
:100A330033F583E5F033F5F0EB33FB4017DAE98068
:100A430042E5822582F582E58333F583E5F033F5CC
:100A5300F0EB33FBEC33FCED33FDEE33FEEF33FF12
:100A6300EC955DED955EEE955FEF95604013EC952B
:100A73005DFCED955EFDEE955FFEEF9560FF4382B5
:050A830001DABEEB22C8
:06003500E478FFF6D8FD9F
:100013007900E94400601B7A0090143B780175A0D5
:1000230000E493F2A308B8000205A0D9F4DAF2754C
:02003300A0FF2C
:100A8800AAF0FBE582855DF0A4FCADF0E583855D09
:100A9800F0A42DFDE435F0FEE582855EF0A42DFD81
:100AA800E5F03EFEE433FFEA855DF0A42EFEE5F0B6
:100AB8003FFFE583855EF0A42EFEE5F03FFFE5826B
:100AC800855FF0A42EFEE5F03FFFEB855DF0A42FD7
:100AD800FFEA855EF0A42FFFE583855FF0A42FFF72
:0E0AE800E5828560F0A42F8EF08D838C822233
:10003B007800E84400600A790175A000E4F309D860
:10004B00FC7800E84400600C7900900001E4F0A318
:04005B00D8FCD9FAFA
:100AF600C05C85815C7E008E83120A13D05C2285E1
:100B0600823F85834085F041E4F53CF53DF53E8521
:100B16001F42900AF6020BE4C05CE581F55C24FBFB
:100B2600FF8F42E4F53CF53DF53EE55C24FBF88697
:100B36003F088640088641900AF6120BE4D05C22F4
:100B4600AF82C032C033C034120B538007C030C0EE
:100B5600318F8222158115811581053AE4B53A0255
:100B6600053B22AF8274302FFF24C6500B74072F2B
:100B7600FFE52F60034307208F82020B46E582FFC5
:100B8600C4540FF582C007120B69D007740F5FF5C6
:100B960082020B6985825DAB35AC36AD37AE38AABD
:100BA60039755F208A07EF2FF55EEE235401455E07
:100BB600FAEB2BFBEC33FCED33FDEE33FEC3EA958B
:100BC6005D4008EAC3955DFA430301E55F14FF8FB4
:100BD6005F70D18B358C368D378E388A3922858277
:100BE60030858331853C32853D33853E34E4F53AA4
:100BF600F53BAD3FAE40AF418D828E838FF0121430
:100C060001FC74012DF53FE43EF5408F41ECFF7089
:100C1600030213C5BF250280030213BD7E007D00BB
:100C26008E438E447A007B008E457C008E46E4F52A
:100C36004EF54F7547FF7548FF853F5085405185F6
:100C460041528550828551838552F0121401F55325
:100C5600A385825085835185503F855140855241F9
:100C66007425B55308855382120B46808574D025AA
:100C7600534003020D26E55324C65003020D267485
:100C8600FFB54755B54852854E5D854F5E90000AC3
:100C9600C006C005C004C003C0021213E485825416
:100CA600858355D002D003D004D005D0068553568F
:100CB600755700E5562554F556E5573555F557E56C
:100CC6005624D0F54EE55734FFF54FE54E454F60B7
:100CD60003020C487D01020C4885475D85485E90FD
:100CE600000AC006C005C004C003C0021213E48592
:100CF6008256858357D002D003D004D005D006850E
:100D06005354755500E5542556F556E5553557F5B2
:100D160057E55624D0F547E55734FFF548020C4809
:100D2600742EB5531574FFB54705B5480280030206
:100D36000C48E4F547F548020C48749F2553500EBD
:100D4600E553248540085353DF752F018003752F23
:100D5600007420B55303020DF2742BB55303020D34
:100D6600EC742DB5530280797442B55303020DF825
:100D76007443B55303020E037444B5530302105073
:100D86007446B553030210667448B55303020C4803
:100D96007449B55303021050744AB55303020C4804
:100DA600744CB553028050744FB5530302105774F8
:100DB60050B55303020F9B7453B553028076745497
:100DC600B55303020C487455B5530302105C7458AE
:100DD600B55303021061745AB55303020C4802104E
:100DE6006A7E01020C48754301020C4875440102F3
:100DF6000C487B01020C48754501020C48EB600A61
:100E0600E54214F989428756800DE54224FEF554E1
:100E1600855442A9548756855682C006C005C0042B
:100E2600C003C002120B46D002D003D004D005D0B6
:100E36000602108CE54224FDF556855642A95687D2
:100E460050098751098752191985503585513685BC
:100E560052378550828551838552F0C006C005C041
:100E660004C003C0021213CC858256858357D00274
:100E7600D003D004D005D00674FFB54709B548069F
:100E8600855647855748EE704FC3E556954EE5574C
:100E9600954F5044E54EC39556F554E54F9557F595
:100EA60055855450855551155474FFB55402155542
:100EB600E5504551601C758220C006C005C004C0BF
:100EC60003C002120B46D002D003D004D005D006D0
:100ED60080CF85544E85554F854754854855853571
:100EE600828536838537F0121401F55085504B60A4
:100EF6004FC3E4955474808555F063F08095F050A7
:100F06003F155474FFB554021555854B82C006C073
:100F160005C004C003C002120B46D002D003D004A1
:100F2600D005D0068535508536518537520550E4B3
:100F3600B550020551855035855136855237809E0C
:100F4600EE700302108CC3E556954EE557954F405B
:100F56000302108CE54EC39556F556E54F9557F5A9
:100F660057855654855755155674FFB5560215576D
:100F7600E55445557003021086758220C006C005EB
:100F8600C004C003C002120B46D002D003D004D066
:100F960005D00680CCE54224FDF554855442A9547B
:100FA6008750098751098752191985503585513659
:100FB60085523785374C7480254C500575544380CF
:100FC6001974A0254C5005755450800E74C0254CDC
:100FD60050057554498003755458855482C006C01F
:100FE60005C004C003C002120B4675823A120B46B6
:100FF600758230120B46758278120B46D002D003EA
:10100600D004D005D0067449B5540280217450B579
:101016005402801A853682C006C005C004C003C0CB
:1010260002120B83D002D003D004D005D00685353A
:1010360082C006C005C004C003C002120B83D002E2
:10104600D003D004D005D006803C7A0175460A80CC
:1010560035754608803075460A802B754610802601
:101066007C018022855382C006C005C004C003C02F
:1010760002120B46D002D003D004D005D00680065B
:1010860085564E85574FEC6068E54224FCFC8C4241
:101096008C01875809875909875A09875B191919D5
:1010A600855835855936855A37855B387535307597
:1010B600361475378085355885365985375A740103
:1010C6002558F550E43559F551855A5285503585E0
:1010D6005136855237855882855983855AF01214C0
:1010E60001FC8C587003020BF8855882120B46805F
:1010F600C4E5467003020BF8EB603FE54214F9893C
:101106004287048C58755900755A00755B008558DE
:1011160035855936855A37855B38EA60030211A949
:10112600853558755900755A00755B0085583585A3
:101136005936855A37855B388069E5456025E5422D
:1011460024FCFC8C428C01875809875909875A0967
:10115600875B191919855835855936855A37855B40
:10116600388040E54224FEFC8C428C0187030987C7
:1011760004198B58ECF5593395E0F55AF55B85580B
:1011860035855936855A37855B38EA701685355860
:10119600853659F55AF55B855835855936855A375A
:1011A600855B38EA602AE53830E723C3E49535F5F0
:1011B60058E49536F559E49537F55AE49538F55BD4
:1011C600855835855936855A37855B3880027A00C9
:1011D6007C017966E4F558F559753900854682C073
:1011E60006C005C004C002C001120B9AD001D0028D
:1011F600D004D005D006EC700DE539C4F556E7FBF2
:101206004556F7198002A7390558E4B5580205591D
:10121600ECB40100E433FCE5354536453745387016
:10122600B8894D85584985594AE54E454F7005752B
:101236004E01F54FED7043EE7040854E58854F597F
:10124600AB490B8B56755700C3E5569558E5579530
:10125600595021758220C006C005C004C002120B79
:1012660046D002D004D005D006155874FFB55802F2
:10127600155980CC85584E85594FEA601D75822DCB
:10128600C006C005C004120B46D004D005D0061512
:101296004E74FFB54E02154F8046E549454A6040FB
:1012A600E543601D75822BC006C005C004120B46BF
:1012B600D004D005D006154E74FFB54E02154F80EA
:1012C6001FE544601B758220C006C005C004120BD2
:1012D60046D004D005D006154E74FFB54E02154F04
:1012E600EE703C854E58854F59AA58AB591558741F
:1012F600FFB558021559C3E5499AE54A9B5041ED99
:1013060060067A307B0080047A207B008A82C006E1
:10131600C005C004120B46D004D005D00680CAC34F
:10132600E549954EE54A954F500FE54EC39549F56B
:1013360056E54F954AF557800DE4F556F557800664
:10134600855856855957A94D854958854A59AA58E9
:10135600AD59155874FFB558021559EA4D602EEC73
:10136600B40100E433FC700A09E7C4540FFD8D395B
:1013760080078705740F5DF539853982C006C0047C
:10138600C001120B69D001D004D00680C1EE7003F3
:10139600020BF8AD56AE578D038E041DBDFF011E20
:1013A600EB4C7003020BF8758220C006C005120BC9
:1013B60046D005D00680E08F82120B46020BF885D8
:0613C6003A82853B832200
:0B1430003C4E4F20464C4F41543E0004
:1013CC00AA82AB831214016003A380F8C3E5829A4E
:1013DC00F582E5839BF58322E582855DF0A4C582C9
:1013EC00C0F0855EF0A4D0F025F0C583855DF0A437
:0513FC002583F58322AA
:0D00060075816612141DE58260030200037F
:1014010020F71430F6148883A88220F507E6A88314
:1014110075830022E280F7E49322E02275820022A4
:00000001FF
